{
  "_format": "hh-sol-artifact-1",
  "contractName": "Todo",
  "sourceName": "contracts/Todo.sol",
  "abi": [
    {
      "anonymous": false,
      "inputs": [
        {
          "indexed": true,
          "internalType": "string",
          "name": "_title",
          "type": "string"
        },
        {
          "indexed": true,
          "internalType": "string",
          "name": "_description",
          "type": "string"
        },
        {
          "indexed": true,
          "internalType": "bool",
          "name": "_isCompleted",
          "type": "bool"
        }
      ],
      "name": "TaskAdded",
      "type": "event"
    },
    {
      "anonymous": false,
      "inputs": [
        {
          "indexed": true,
          "internalType": "bool",
          "name": "_isCompleted",
          "type": "bool"
        }
      ],
      "name": "TaskCompleted",
      "type": "event"
    },
    {
      "anonymous": false,
      "inputs": [],
      "name": "TaskDeleted",
      "type": "event"
    },
    {
      "anonymous": false,
      "inputs": [
        {
          "indexed": true,
          "internalType": "string",
          "name": "_title",
          "type": "string"
        },
        {
          "indexed": true,
          "internalType": "string",
          "name": "_description",
          "type": "string"
        }
      ],
      "name": "TaskUpdated",
      "type": "event"
    },
    {
      "inputs": [
        {
          "internalType": "string",
          "name": "_title",
          "type": "string"
        },
        {
          "internalType": "string",
          "name": "_description",
          "type": "string"
        }
      ],
      "name": "addTask",
      "outputs": [],
      "stateMutability": "nonpayable",
      "type": "function"
    },
    {
      "inputs": [
        {
          "internalType": "uint256",
          "name": "_idx",
          "type": "uint256"
        }
      ],
      "name": "deleteTask",
      "outputs": [],
      "stateMutability": "nonpayable",
      "type": "function"
    },
    {
      "inputs": [],
      "name": "getTaskList",
      "outputs": [
        {
          "components": [
            {
              "internalType": "string",
              "name": "title",
              "type": "string"
            },
            {
              "internalType": "string",
              "name": "description",
              "type": "string"
            },
            {
              "internalType": "bool",
              "name": "isCompleted",
              "type": "bool"
            }
          ],
          "internalType": "struct Todo.Task[]",
          "name": "",
          "type": "tuple[]"
        }
      ],
      "stateMutability": "view",
      "type": "function"
    },
    {
      "inputs": [
        {
          "internalType": "uint256",
          "name": "_idx",
          "type": "uint256"
        }
      ],
      "name": "markTaskComplete",
      "outputs": [],
      "stateMutability": "nonpayable",
      "type": "function"
    },
    {
      "inputs": [
        {
          "internalType": "uint256",
          "name": "_idx",
          "type": "uint256"
        },
        {
          "internalType": "string",
          "name": "_title",
          "type": "string"
        },
        {
          "internalType": "string",
          "name": "_description",
          "type": "string"
        }
      ],
      "name": "updateTask",
      "outputs": [],
      "stateMutability": "nonpayable",
      "type": "function"
    }
  ],
  "bytecode": "0x608060405234801561001057600080fd5b506113bb806100206000396000f3fe608060405234801561001057600080fd5b50600436106100575760003560e01c806338940fae1461005c578063560f31921461007a578063b37b100014610096578063b733ca36146100b2578063c72ef41f146100ce575b600080fd5b6100646100ea565b6040516100719190610b48565b60405180910390f35b610094600480360381019061008f9190610bb4565b6102c4565b005b6100b060048036038101906100ab9190610d16565b61056e565b005b6100cc60048036038101906100c79190610bb4565b6106a1565b005b6100e860048036038101906100e39190610d8e565b61079d565b005b60606000803373ffffffffffffffffffffffffffffffffffffffff1673ffffffffffffffffffffffffffffffffffffffff168152602001908152602001600020805480602002602001604051908101604052809291908181526020016000905b828210156102bb578382906000526020600020906003020160405180606001604052908160008201805461017d90610e48565b80601f01602080910402602001604051908101604052809291908181526020018280546101a990610e48565b80156101f65780601f106101cb576101008083540402835291602001916101f6565b820191906000526020600020905b8154815290600101906020018083116101d957829003601f168201915b5050505050815260200160018201805461020f90610e48565b80601f016020809104026020016040519081016040528092919081815260200182805461023b90610e48565b80156102885780601f1061025d57610100808354040283529160200191610288565b820191906000526020600020905b81548152906001019060200180831161026b57829003601f168201915b505050505081526020016002820160009054906101000a900460ff1615151515815250508152602001906001019061014a565b50505050905090565b806000803373ffffffffffffffffffffffffffffffffffffffff1673ffffffffffffffffffffffffffffffffffffffff16815260200190815260200160002080549050811061031257600080fd5b60006001836103219190610ea8565b90505b6000803373ffffffffffffffffffffffffffffffffffffffff1673ffffffffffffffffffffffffffffffffffffffff168152602001908152602001600020805490508110156104a2576000803373ffffffffffffffffffffffffffffffffffffffff1673ffffffffffffffffffffffffffffffffffffffff16815260200190815260200160002081815481106103bd576103bc610edc565b5b90600052602060002090600302016000803373ffffffffffffffffffffffffffffffffffffffff1673ffffffffffffffffffffffffffffffffffffffff1681526020019081526020016000206001836104169190610f0b565b8154811061042757610426610edc565b5b9060005260206000209060030201600082018160000190816104499190611101565b506001820181600101908161045e9190611101565b506002820160009054906101000a900460ff168160020160006101000a81548160ff021916908315150217905550905050808061049a906111e9565b915050610324565b506000803373ffffffffffffffffffffffffffffffffffffffff1673ffffffffffffffffffffffffffffffffffffffff1681526020019081526020016000208054806104f1576104f0611231565b5b6001900381819060005260206000209060030201600080820160006105169190610927565b6001820160006105269190610927565b6002820160006101000a81549060ff0219169055505090557f62bb299ce2f5c33295350e6c17cd4fb93575b1812df21cec34c01b8f8303fb6660405160405180910390a15050565b6000803373ffffffffffffffffffffffffffffffffffffffff1673ffffffffffffffffffffffffffffffffffffffff168152602001908152602001600020604051806060016040528084815260200183815260200160001515815250908060018154018082558091505060019003906000526020600020906003020160009091909190915060008201518160000190816106089190611260565b50602082015181600101908161061e9190611260565b5060408201518160020160006101000a81548160ff02191690831515021790555050506000151581604051610653919061136e565b604051809103902083604051610669919061136e565b60405180910390207f12597caf4305320901969a1a8bb58923adaebb0a9f6130344628f867aa72d7ba60405160405180910390a45050565b806000803373ffffffffffffffffffffffffffffffffffffffff1673ffffffffffffffffffffffffffffffffffffffff1681526020019081526020016000208054905081106106ef57600080fd5b60016000803373ffffffffffffffffffffffffffffffffffffffff1673ffffffffffffffffffffffffffffffffffffffff168152602001908152602001600020838154811061074157610740610edc565b5b906000526020600020906003020160020160006101000a81548160ff021916908315150217905550600115157facd30b4f9fd5868793e13ffb506f03374a23d9feba1249ac2cc7b0fe024ff4ba60405160405180910390a25050565b826000803373ffffffffffffffffffffffffffffffffffffffff1673ffffffffffffffffffffffffffffffffffffffff1681526020019081526020016000208054905081106107eb57600080fd5b826000803373ffffffffffffffffffffffffffffffffffffffff1673ffffffffffffffffffffffffffffffffffffffff168152602001908152602001600020858154811061083c5761083b610edc565b5b906000526020600020906003020160000190816108599190611260565b50816000803373ffffffffffffffffffffffffffffffffffffffff1673ffffffffffffffffffffffffffffffffffffffff16815260200190815260200160002085815481106108ab576108aa610edc565b5b906000526020600020906003020160010190816108c89190611260565b50816040516108d7919061136e565b6040518091039020836040516108ed919061136e565b60405180910390207fcf8848c751c9654e73708e45e895eb759c77a66c7315d2b348c25410fe1b4ccf60405160405180910390a350505050565b50805461093390610e48565b6000825580601f106109455750610964565b601f0160209004906000526020600020908101906109639190610967565b5b50565b5b80821115610980576000816000905550600101610968565b5090565b600081519050919050565b600082825260208201905092915050565b6000819050602082019050919050565b600081519050919050565b600082825260208201905092915050565b60005b838110156109ea5780820151818401526020810190506109cf565b60008484015250505050565b6000601f19601f8301169050919050565b6000610a12826109b0565b610a1c81856109bb565b9350610a2c8185602086016109cc565b610a35816109f6565b840191505092915050565b60008115159050919050565b610a5581610a40565b82525050565b60006060830160008301518482036000860152610a788282610a07565b91505060208301518482036020860152610a928282610a07565b9150506040830151610aa76040860182610a4c565b508091505092915050565b6000610abe8383610a5b565b905092915050565b6000602082019050919050565b6000610ade82610984565b610ae8818561098f565b935083602082028501610afa856109a0565b8060005b85811015610b365784840389528151610b178582610ab2565b9450610b2283610ac6565b925060208a01995050600181019050610afe565b50829750879550505050505092915050565b60006020820190508181036000830152610b628184610ad3565b905092915050565b6000604051905090565b600080fd5b600080fd5b6000819050919050565b610b9181610b7e565b8114610b9c57600080fd5b50565b600081359050610bae81610b88565b92915050565b600060208284031215610bca57610bc9610b74565b5b6000610bd884828501610b9f565b91505092915050565b600080fd5b600080fd5b7f4e487b7100000000000000000000000000000000000000000000000000000000600052604160045260246000fd5b610c23826109f6565b810181811067ffffffffffffffff82111715610c4257610c41610beb565b5b80604052505050565b6000610c55610b6a565b9050610c618282610c1a565b919050565b600067ffffffffffffffff821115610c8157610c80610beb565b5b610c8a826109f6565b9050602081019050919050565b82818337600083830152505050565b6000610cb9610cb484610c66565b610c4b565b905082815260208101848484011115610cd557610cd4610be6565b5b610ce0848285610c97565b509392505050565b600082601f830112610cfd57610cfc610be1565b5b8135610d0d848260208601610ca6565b91505092915050565b60008060408385031215610d2d57610d2c610b74565b5b600083013567ffffffffffffffff811115610d4b57610d4a610b79565b5b610d5785828601610ce8565b925050602083013567ffffffffffffffff811115610d7857610d77610b79565b5b610d8485828601610ce8565b9150509250929050565b600080600060608486031215610da757610da6610b74565b5b6000610db586828701610b9f565b935050602084013567ffffffffffffffff811115610dd657610dd5610b79565b5b610de286828701610ce8565b925050604084013567ffffffffffffffff811115610e0357610e02610b79565b5b610e0f86828701610ce8565b9150509250925092565b7f4e487b7100000000000000000000000000000000000000000000000000000000600052602260045260246000fd5b60006002820490506001821680610e6057607f821691505b602082108103610e7357610e72610e19565b5b50919050565b7f4e487b7100000000000000000000000000000000000000000000000000000000600052601160045260246000fd5b6000610eb382610b7e565b9150610ebe83610b7e565b9250828201905080821115610ed657610ed5610e79565b5b92915050565b7f4e487b7100000000000000000000000000000000000000000000000000000000600052603260045260246000fd5b6000610f1682610b7e565b9150610f2183610b7e565b9250828203905081811115610f3957610f38610e79565b5b92915050565b600081549050610f4e81610e48565b9050919050565b60008190508160005260206000209050919050565b60006020601f8301049050919050565b600082821b905092915050565b600060088302610fb77fffffffffffffffffffffffffffffffffffffffffffffffffffffffffffffffff82610f7a565b610fc18683610f7a565b95508019841693508086168417925050509392505050565b6000819050919050565b6000610ffe610ff9610ff484610b7e565b610fd9565b610b7e565b9050919050565b6000819050919050565b61101883610fe3565b61102c61102482611005565b848454610f87565b825550505050565b600090565b611041611034565b61104c81848461100f565b505050565b5b8181101561107057611065600082611039565b600181019050611052565b5050565b601f8211156110b55761108681610f55565b61108f84610f6a565b8101602085101561109e578190505b6110b26110aa85610f6a565b830182611051565b50505b505050565b600082821c905092915050565b60006110d8600019846008026110ba565b1980831691505092915050565b60006110f183836110c7565b9150826002028217905092915050565b81810361110f5750506111e7565b61111882610f3f565b67ffffffffffffffff81111561113157611130610beb565b5b61113b8254610e48565b611146828285611074565b6000601f8311600181146111755760008415611163578287015490505b61116d85826110e5565b8655506111e0565b601f19841661118387610f55565b965061118e86610f55565b60005b828110156111b657848901548255600182019150600185019450602081019050611191565b868310156111d357848901546111cf601f8916826110c7565b8355505b6001600288020188555050505b5050505050505b565b60006111f482610b7e565b91507fffffffffffffffffffffffffffffffffffffffffffffffffffffffffffffffff820361122657611225610e79565b5b600182019050919050565b7f4e487b7100000000000000000000000000000000000000000000000000000000600052603160045260246000fd5b611269826109b0565b67ffffffffffffffff81111561128257611281610beb565b5b61128c8254610e48565b611297828285611074565b600060209050601f8311600181146112ca57600084156112b8578287015190505b6112c285826110e5565b86555061132a565b601f1984166112d886610f55565b60005b82811015611300578489015182556001820191506020850194506020810190506112db565b8683101561131d5784890151611319601f8916826110c7565b8355505b6001600288020188555050505b505050505050565b600081905092915050565b6000611348826109b0565b6113528185611332565b93506113628185602086016109cc565b80840191505092915050565b600061137a828461133d565b91508190509291505056fea2646970667358221220da1bb2809f55a3d5105dd83ddcea0f8055af34dfa6a0f32bbdaecd25092805c064736f6c63430008130033",
  "linkReferences": {},
  "deployedLinkReferences": {}
}