{
  "_format": "hh-sol-artifact-1",
  "contractName": "Todo",
  "sourceName": "contracts/Todo.sol",
  "abi": [
    {
      "inputs": [
        {
          "internalType": "string",
          "name": "_title",
          "type": "string"
        },
        {
          "internalType": "string",
          "name": "_description",
          "type": "string"
        }
      ],
      "name": "addTask",
      "outputs": [],
      "stateMutability": "nonpayable",
      "type": "function"
    },
    {
      "inputs": [
        {
          "internalType": "uint256",
          "name": "_idx",
          "type": "uint256"
        }
      ],
      "name": "deleteTask",
      "outputs": [],
      "stateMutability": "nonpayable",
      "type": "function"
    },
    {
      "inputs": [],
      "name": "getTaskList",
      "outputs": [
        {
          "components": [
            {
              "internalType": "string",
              "name": "title",
              "type": "string"
            },
            {
              "internalType": "string",
              "name": "description",
              "type": "string"
            },
            {
              "internalType": "bool",
              "name": "isCompleted",
              "type": "bool"
            }
          ],
          "internalType": "struct Todo.Task[]",
          "name": "",
          "type": "tuple[]"
        }
      ],
      "stateMutability": "view",
      "type": "function"
    },
    {
      "inputs": [
        {
          "internalType": "uint256",
          "name": "_idx",
          "type": "uint256"
        }
      ],
      "name": "markTaskComplete",
      "outputs": [],
      "stateMutability": "nonpayable",
      "type": "function"
    },
    {
      "inputs": [
        {
          "internalType": "uint256",
          "name": "_idx",
          "type": "uint256"
        },
        {
          "internalType": "string",
          "name": "_title",
          "type": "string"
        },
        {
          "internalType": "string",
          "name": "_description",
          "type": "string"
        }
      ],
      "name": "updateTask",
      "outputs": [],
      "stateMutability": "nonpayable",
      "type": "function"
    }
  ],
  "bytecode": "0x608060405234801561001057600080fd5b50611258806100206000396000f3fe608060405234801561001057600080fd5b50600436106100575760003560e01c806338940fae1461005c578063560f31921461007a578063b37b100014610096578063b733ca36146100b2578063c72ef41f146100ce575b600080fd5b6100646100ea565b6040516100719190610a38565b60405180910390f35b610094600480360381019061008f9190610aa4565b6102c4565b005b6100b060048036038101906100ab9190610c06565b610542565b005b6100cc60048036038101906100c79190610aa4565b610619565b005b6100e860048036038101906100e39190610c7e565b6106e5565b005b60606000803373ffffffffffffffffffffffffffffffffffffffff1673ffffffffffffffffffffffffffffffffffffffff168152602001908152602001600020805480602002602001604051908101604052809291908181526020016000905b828210156102bb578382906000526020600020906003020160405180606001604052908160008201805461017d90610d38565b80601f01602080910402602001604051908101604052809291908181526020018280546101a990610d38565b80156101f65780601f106101cb576101008083540402835291602001916101f6565b820191906000526020600020905b8154815290600101906020018083116101d957829003601f168201915b5050505050815260200160018201805461020f90610d38565b80601f016020809104026020016040519081016040528092919081815260200182805461023b90610d38565b80156102885780601f1061025d57610100808354040283529160200191610288565b820191906000526020600020905b81548152906001019060200180831161026b57829003601f168201915b505050505081526020016002820160009054906101000a900460ff1615151515815250508152602001906001019061014a565b50505050905090565b806000803373ffffffffffffffffffffffffffffffffffffffff1673ffffffffffffffffffffffffffffffffffffffff16815260200190815260200160002080549050811061031257600080fd5b60006001836103219190610d98565b90505b6000803373ffffffffffffffffffffffffffffffffffffffff1673ffffffffffffffffffffffffffffffffffffffff168152602001908152602001600020805490508110156104a2576000803373ffffffffffffffffffffffffffffffffffffffff1673ffffffffffffffffffffffffffffffffffffffff16815260200190815260200160002081815481106103bd576103bc610dcc565b5b90600052602060002090600302016000803373ffffffffffffffffffffffffffffffffffffffff1673ffffffffffffffffffffffffffffffffffffffff1681526020019081526020016000206001836104169190610dfb565b8154811061042757610426610dcc565b5b9060005260206000209060030201600082018160000190816104499190610ff1565b506001820181600101908161045e9190610ff1565b506002820160009054906101000a900460ff168160020160006101000a81548160ff021916908315150217905550905050808061049a906110d9565b915050610324565b506000803373ffffffffffffffffffffffffffffffffffffffff1673ffffffffffffffffffffffffffffffffffffffff1681526020019081526020016000208054806104f1576104f0611121565b5b6001900381819060005260206000209060030201600080820160006105169190610817565b6001820160006105269190610817565b6002820160006101000a81549060ff0219169055505090555050565b6000803373ffffffffffffffffffffffffffffffffffffffff1673ffffffffffffffffffffffffffffffffffffffff168152602001908152602001600020604051806060016040528084815260200183815260200160001515815250908060018154018082558091505060019003906000526020600020906003020160009091909190915060008201518160000190816105dc9190611150565b5060208201518160010190816105f29190611150565b5060408201518160020160006101000a81548160ff02191690831515021790555050505050565b806000803373ffffffffffffffffffffffffffffffffffffffff1673ffffffffffffffffffffffffffffffffffffffff16815260200190815260200160002080549050811061066757600080fd5b60016000803373ffffffffffffffffffffffffffffffffffffffff1673ffffffffffffffffffffffffffffffffffffffff16815260200190815260200160002083815481106106b9576106b8610dcc565b5b906000526020600020906003020160020160006101000a81548160ff0219169083151502179055505050565b826000803373ffffffffffffffffffffffffffffffffffffffff1673ffffffffffffffffffffffffffffffffffffffff16815260200190815260200160002080549050811061073357600080fd5b826000803373ffffffffffffffffffffffffffffffffffffffff1673ffffffffffffffffffffffffffffffffffffffff168152602001908152602001600020858154811061078457610783610dcc565b5b906000526020600020906003020160000190816107a19190611150565b50816000803373ffffffffffffffffffffffffffffffffffffffff1673ffffffffffffffffffffffffffffffffffffffff16815260200190815260200160002085815481106107f3576107f2610dcc565b5b906000526020600020906003020160010190816108109190611150565b5050505050565b50805461082390610d38565b6000825580601f106108355750610854565b601f0160209004906000526020600020908101906108539190610857565b5b50565b5b80821115610870576000816000905550600101610858565b5090565b600081519050919050565b600082825260208201905092915050565b6000819050602082019050919050565b600081519050919050565b600082825260208201905092915050565b60005b838110156108da5780820151818401526020810190506108bf565b60008484015250505050565b6000601f19601f8301169050919050565b6000610902826108a0565b61090c81856108ab565b935061091c8185602086016108bc565b610925816108e6565b840191505092915050565b60008115159050919050565b61094581610930565b82525050565b6000606083016000830151848203600086015261096882826108f7565b9150506020830151848203602086015261098282826108f7565b9150506040830151610997604086018261093c565b508091505092915050565b60006109ae838361094b565b905092915050565b6000602082019050919050565b60006109ce82610874565b6109d8818561087f565b9350836020820285016109ea85610890565b8060005b85811015610a265784840389528151610a0785826109a2565b9450610a12836109b6565b925060208a019950506001810190506109ee565b50829750879550505050505092915050565b60006020820190508181036000830152610a5281846109c3565b905092915050565b6000604051905090565b600080fd5b600080fd5b6000819050919050565b610a8181610a6e565b8114610a8c57600080fd5b50565b600081359050610a9e81610a78565b92915050565b600060208284031215610aba57610ab9610a64565b5b6000610ac884828501610a8f565b91505092915050565b600080fd5b600080fd5b7f4e487b7100000000000000000000000000000000000000000000000000000000600052604160045260246000fd5b610b13826108e6565b810181811067ffffffffffffffff82111715610b3257610b31610adb565b5b80604052505050565b6000610b45610a5a565b9050610b518282610b0a565b919050565b600067ffffffffffffffff821115610b7157610b70610adb565b5b610b7a826108e6565b9050602081019050919050565b82818337600083830152505050565b6000610ba9610ba484610b56565b610b3b565b905082815260208101848484011115610bc557610bc4610ad6565b5b610bd0848285610b87565b509392505050565b600082601f830112610bed57610bec610ad1565b5b8135610bfd848260208601610b96565b91505092915050565b60008060408385031215610c1d57610c1c610a64565b5b600083013567ffffffffffffffff811115610c3b57610c3a610a69565b5b610c4785828601610bd8565b925050602083013567ffffffffffffffff811115610c6857610c67610a69565b5b610c7485828601610bd8565b9150509250929050565b600080600060608486031215610c9757610c96610a64565b5b6000610ca586828701610a8f565b935050602084013567ffffffffffffffff811115610cc657610cc5610a69565b5b610cd286828701610bd8565b925050604084013567ffffffffffffffff811115610cf357610cf2610a69565b5b610cff86828701610bd8565b9150509250925092565b7f4e487b7100000000000000000000000000000000000000000000000000000000600052602260045260246000fd5b60006002820490506001821680610d5057607f821691505b602082108103610d6357610d62610d09565b5b50919050565b7f4e487b7100000000000000000000000000000000000000000000000000000000600052601160045260246000fd5b6000610da382610a6e565b9150610dae83610a6e565b9250828201905080821115610dc657610dc5610d69565b5b92915050565b7f4e487b7100000000000000000000000000000000000000000000000000000000600052603260045260246000fd5b6000610e0682610a6e565b9150610e1183610a6e565b9250828203905081811115610e2957610e28610d69565b5b92915050565b600081549050610e3e81610d38565b9050919050565b60008190508160005260206000209050919050565b60006020601f8301049050919050565b600082821b905092915050565b600060088302610ea77fffffffffffffffffffffffffffffffffffffffffffffffffffffffffffffffff82610e6a565b610eb18683610e6a565b95508019841693508086168417925050509392505050565b6000819050919050565b6000610eee610ee9610ee484610a6e565b610ec9565b610a6e565b9050919050565b6000819050919050565b610f0883610ed3565b610f1c610f1482610ef5565b848454610e77565b825550505050565b600090565b610f31610f24565b610f3c818484610eff565b505050565b5b81811015610f6057610f55600082610f29565b600181019050610f42565b5050565b601f821115610fa557610f7681610e45565b610f7f84610e5a565b81016020851015610f8e578190505b610fa2610f9a85610e5a565b830182610f41565b50505b505050565b600082821c905092915050565b6000610fc860001984600802610faa565b1980831691505092915050565b6000610fe18383610fb7565b9150826002028217905092915050565b818103610fff5750506110d7565b61100882610e2f565b67ffffffffffffffff81111561102157611020610adb565b5b61102b8254610d38565b611036828285610f64565b6000601f8311600181146110655760008415611053578287015490505b61105d8582610fd5565b8655506110d0565b601f19841661107387610e45565b965061107e86610e45565b60005b828110156110a657848901548255600182019150600185019450602081019050611081565b868310156110c357848901546110bf601f891682610fb7565b8355505b6001600288020188555050505b5050505050505b565b60006110e482610a6e565b91507fffffffffffffffffffffffffffffffffffffffffffffffffffffffffffffffff820361111657611115610d69565b5b600182019050919050565b7f4e487b7100000000000000000000000000000000000000000000000000000000600052603160045260246000fd5b611159826108a0565b67ffffffffffffffff81111561117257611171610adb565b5b61117c8254610d38565b611187828285610f64565b600060209050601f8311600181146111ba57600084156111a8578287015190505b6111b28582610fd5565b86555061121a565b601f1984166111c886610e45565b60005b828110156111f0578489015182556001820191506020850194506020810190506111cb565b8683101561120d5784890151611209601f891682610fb7565b8355505b6001600288020188555050505b50505050505056fea2646970667358221220046f8b576e8f0079a42b5dce2ff347e351b7bd51841d4ec677e5956a91a9f06364736f6c63430008130033",
  "linkReferences": {},
  "deployedLinkReferences": {}
}